:020000040800F2
:10000000A80B0020B1010008035000083D4500087E
:1000100000000000000000000000000000000000E0
:100020000000000000000000000000000750000871
:100030000000000000000000055000080950000802
:10004000C3010008C3010008C3010008C301000880
:10005000C3010008C3010008C3010008C301000870
:10006000C3010008C3010008C3010008C301000860
:10007000C3010008C30100085D56000815500008C0
:10008000C3010008C3010008C3010008000000000C
:10009000C3010008C3010008C3010008414500086E
:1000A000C3010008C3010008C3010008C301000820
:1000B000C3010008C3010008C3010008C301000810
:1000C00000F002F800F064F812A030C808382418D4
:1000D0002D18AC4201D100F05BF80FCCA246AB4624
:1000E0000CA730CF2D1B083F3F197C427F1E544484
:1000F0002D090426F441641EAC4201D300F048F8F7
:100100000126334200D0FB1A3343984754465D46DC
:10011000DFE70000406D0000606D0000103A02D380
:1001200078C878C1FAD8520701D330C830C101D598
:1001300004680C6070470000704700000023002432
:1001400000250026103A01D378C1FBD8520700D30E
:1001500030C100D50B60704710B5662902D106F09A
:1001600009FB10BD002010BD1FB50098019902F0D9
:1001700074F801F095F804000020002106F08CFAD4
:10018000E06001F03DFD1FBD10B501F0A5FD10BD03
:1001900001F020FE1146FFF7E7FF05F0DDFB01F05F
:1001A000D7FF03B4FFF7F0FF03BC02F023F9000010
:1001B0000748804707480047FEE7FEE7FEE7FEE7FF
:1001C000FEE7FEE704480549054A064B7047000074
:1001D00011500008C1000008A8050020A80B00204D
:1001E000A8070020A8070020FEB5044610460D46CB
:1001F000184373D0A6468C460020A41A01469D41A0
:1002000067D36646002701243D46B61A9D4102D3B6
:1002100013463A462124654676462F04360C3E4363
:100220002D0CB61A9D4104D3150C1B042B4312044C
:100230001034654676462F06360A3E432D0AB61A16
:100240009D4104D3150E1B022B4312020834654650
:1002500076462F0736093E432D09B61A9D4104D331
:10026000150F1B012B431201241D65467646AF076F
:10027000B6083E43AD08B61A9D4104D3950F9B00C6
:100280002B439200A41C65467646EF0776083E4352
:100290006D08B61A9D411AD392185B41641C16E092
:1002A0000018764665464941B71A9D410191009074
:1002B00009D36046B11A98418E4684460098019948
:1002C0000025401C6941DD0752082A435B08641E73
:1002D000E6D57246634603B0F0BDFFE720462843EB
:1002E00007D00020C0430146C046C04622462B46E8
:1002F000F1E700200146F7E70FB41CB5074B06AA4B
:100300007B4469460090059800F069FF002069462B
:1003100000F078FF1CBC08BC04B01847010F0000B7
:10032000F3B50446002081B020622046E16888478A
:1003300000287AD0252802D06268A16871E0E168BF
:1003400020460025884706460020E0610746A06158
:100350002A2E0AD0304606F071F9002827D0B800BE
:100360000019303E0090866119E00298BA00121917
:1003700002C8916102902046E1688847012F064635
:1003800017D1E06900281FDA202085431CE000987F
:100390000A218069484300998019303888612046D5
:1003A000E1688847064606F049F90028EFD1012F99
:1003B0000AD02E2E08D12046E16888470646202024
:1003C00005437F1C022FC3DBA069002803DA4042EB
:1003D000A06101200543E80701D010208543002ECD
:1003E00023D030464138192803D80120C0020543E4
:1003F0002036204625603146029A1546FFF7ACFEAE
:1004000000280BD0012806D0ED1DE808C0000830F8
:1004100002908AE709E02D1D029586E76268304662
:10042000A1689047206A401C7EE7206AFEBD00005C
:1004300010B5044603E006F008F9401C08D0207807
:100440000549641C0028F6D10A2006F0FEF810BD0C
:100450000020C04310BD00006C00002030B5441CDB
:1004600003E00178401C00290DD08107F9D10B4B26
:10047000DD0104C8D11A91432940FAD0001B0A06B5
:1004800003D0C01E30BD001B30BD0A0401D0801E49
:1004900030BD0902FCD0401E30BD00000101010149
:1004A00001E004C0091F0429FBD28B0701D502809B
:1004B000801CC90700D00270704700290BD0C30709
:1004C00002D00270401C491E022904D3830702D5C2
:1004D0000280801C891EE3E70022EEE70022DFE7AE
:1004E000002203098B4273D3030A8B4258D3030BB8
:1004F0008B423CD3030C8B4221D312E003460B43C7
:100500007FD4002243088B4274D303098B425FD30C
:10051000030A8B4244D3030B8B4228D3030C8B4238
:100520000DD30902FF2212BA030C8B4202D312121E
:10053000090265D0030B8B4219D300E0090AC30BF3
:100540008B4201D3CB03C01A5241830B8B4201D3A0
:100550008B03C01A5241430B8B4201D34B03C01A89
:100560005241030B8B4201D30B03C01A5241C30A01
:100570008B4201D3CB02C01A5241830A8B4201D372
:100580008B02C01A5241430A8B4201D34B02C01A5C
:100590005241030A8B4201D30B02C01A5241CDD201
:1005A000C3098B4201D3CB01C01A524183098B424C
:1005B00001D38B01C01A524143098B4201D34B0135
:1005C000C01A524103098B4201D30B01C01A524198
:1005D000C3088B4201D3CB00C01A524183088B421F
:1005E00001D38B00C01A524143088B4201D34B0008
:1005F000C01A5241411A00D201465241104670477A
:100600005DE0CA0F00D04942031000D3404253407E
:100610009C46002203098B422DD3030A8B4212D33E
:100620008901FC2212BA030A8B420CD38901921170
:100630008B4208D3890192118B4204D389013AD0AD
:10064000921100E08909C3098B4201D3CB01C01A82
:10065000524183098B4201D38B01C01A5241430995
:100660008B4201D34B01C01A524103098B4201D383
:100670000B01C01A5241C3088B4201D3CB00C01AF0
:10068000524183088B4201D38B00C01A5241D9D208
:1006900043088B4201D34B00C01A5241411A00D289
:1006A00001465241104663465B1001D34042002B85
:1006B00000D54942704763465B1000D3404201B504
:1006C0000449002802DC491C084000E00846C046F6
:1006D000C04602BDFFFFFF7F7047704770470000B4
:1006E0000246C80FC00781434B0030B54B405B004A
:1006F0009B0D20D01923DB06C91801231B05994245
:1007000020DB0324A40704251346AB400BD3002BA6
:1007100004D1EB0613409B00E34204D40124640798
:10072000002312195941FF231B0599420BD2C9001E
:100730000143500F09E0CB0204D5014308030243F3
:1007400005D0054830BDFF21C905084330BD084626
:1007500007210905884330BD0000C07FF0B50C4675
:10076000871A9C410D46861A9D4103D2C01BA141A8
:10077000D21963410D0D1F0DC94EEC1BAE435CD069
:100780007F057F0D0026002F51D02D05AC46A943D3
:10079000DD020123ED0A1B051D4320231B1B24D46E
:1007A0001746E740381871412F46E740CC199D4065
:1007B0002818314661410C0D27D161449A4013D568
:1007C0000023401C594152000ED140084000012234
:1007D0004B005205D34207D305204007C14201D543
:1007E000B04900E0B0493046F0BD6B00002A00D0AF
:1007F00001229A181F23203C1B1B01D5002302E075
:10080000E540281871410C0DD7D0012424050919A1
:10081000C407CD0740084908E40F28436144002C71
:10082000D5D00024401C61419A40D0D1CDE76A0563
:10083000520DD9D1C90FC907D5E79C4D4E000028EC
:1008400001D0012400E0002434195F00002A01D007
:10085000012600E00026BE19954FAC420CD8AE42EE
:100860000AD8B44206D001256D05EC42BCD0104632
:100870001946F0BD9942FCD000203946F0BDF0B5D4
:100880001FB40C460F46811A9F412546861A9D418A
:1008900006D20125ED076F40401ABC4152187B413A
:1008A000210D1E0D8D1BAC467D4D8D437ED07505F3
:1008B0006D0D7CD00D05AE46AC431B031B0B794D73
:1008C00052429D41202366469B1B14D31746F74096
:1008D000381800260090744160462F460741E419FD
:1008E00000989D402818664116D4714671189A40A8
:1008F00025D5012320E093182A466A415200002B97
:1009000000D0521C1E23203E9B1B002B61DD354175
:10091000EE1728186641E8D5001876415B1C9A400E
:1009200000D3401C4B05F3181524E34010D3002BD3
:1009300052D071467118D30FC01802D3491C05B0AC
:10094000F0BD0123DB079A42F9D140084000F6E7E9
:1009500001225205B21801D1002853D00123CC0A3C
:10096000DB029943891E002A08D1020C03D0020C35
:100970000004103902E00246002020390023550B04
:1009800005D112020823550B01D152010D23550C3C
:1009900001D112011B1DD50C01D192009B1C150D1C
:1009A00001D152005B1C2025EE1A01E02CE022E070
:1009B0000546F54015439840CA1AE1076918130522
:1009C000C918002ABBDA032040070818C10FC9075D
:1009D0000FE071466118B2E7F10740080843711053
:1009E00071444A000CD001235B059A42A7D2C90F7B
:1009F000C9070020A3E74905490D26D1002001E0E1
:100A00000028F4D100219AE7284D6600002801D083
:100A1000012100E0002171185F00002A01D00126A9
:100A200000E00026BE19224FA94210D8AE420ED8CF
:100A3000B14208D001256D05E94206D01946A80249
:100A4000414010467BE79C4201D0214677E70020D9
:100A5000394674E710B50C465C4005D50124E4071F
:100A60006340FFF70CFF10BDFFF778FE10BD30B4F8
:100A70000C465C4004D50124E407634030BC6DE6BD
:100A800030BCFCE670B50124E40761400D465D40D2
:100A900002D4FFF763FE70BD6340FFF7F0FE70BD48
:100AA000FF0700000000F0FF0000F07F0000E0FF03
:100AB0000000F87F1F22030C02D10F22000402D095
:100AC000030E03D004E00020014670470002083AFC
:100AD000030F01D10001121F830F01D18000921E6C
:100AE000002801DB4000521E120551184205C012B9
:100AF000411810467047C10FC90700D0404201227B
:100B000092071143D6E701218907D3E7F0B58B4C53
:100B10000F09254689B0BD437BD01D092646AE434B
:100B2000FAD00E465E402740F60F3E43254071D076
:100B300024012142FBD0FF24AD19A4042D1B0395F1
:100B400001252D05DB02DB0AC9022B43C90A294313
:100B50001E010901040F130F050121431701880B22
:100B6000820391432D098C46A90B1E438A039543AA
:100B7000B30B9A0396433F09BA0B9403A74302961B
:100B80002E467E430497B6464E19D7190C46019659
:100B9000544305977E43371B7646BF1B3601B64646
:100BA000BE0B361900967646BC043719009C01D35B
:100BB000641C00946400002F01D001263443029E7F
:100BC000049F754366467E430496760034196E0092
:100BD00034190094029C019E1C196643751BAE4695
:100BE000069465464519059C05956C435943754621
:100BF0000891691A0191049E01465143A41B049176
:100C0000611A009C0791E10605D061090122114398
:100C100002E072E06EE06109089D00272C0A2D06B3
:100C20006918049D7C412A0A2D066918019D6241BC
:100C3000AC0DAD026D185441079A910D92025519F1
:100C40006141029A644658435443069B059A5A43AD
:100C5000121A131B9A0E9B015B187A41010B0005B7
:100C6000C3185141220A200644195A419A4200D21F
:100C7000491C01204002814203D315230226F6437A
:100C800002E014230326F6432020C51AA940174684
:100C9000AF40DA400A4320460399D840091473183C
:100CA00019055118039A3843D2075140AC4009D076
:100CB0000122944006D30022401C5141002C01D156
:100CC000400840001E4A934212D301220398920624
:100CD000904207DB0520400709181A480143C0125B
:100CE000414004E0032040070818C10FC907002055
:100CF00009B0F0BD0020F107FAE705180C464C4199
:100D000011486D42A04115D394181A465A410E4815
:100D1000644290410ED301204A004005824209D32B
:100D20005A00824206D35940C90F084AC907002019
:100D30001143DDE700200649DAE700000000FF0765
:100D4000FE070000FFFFFF7F0000E0FF0000F07FD4
:100D50000000F87F0121C9050123411842001B064C
:100D6000D3185B0E0AD0C1100722D206891840079B
:100D70005242D14201D5520089187047090208D564
:100D80000146002A03D0C10FC90700207047104652
:100D90007047420202D0002002497047072109052E
:100DA0000143F4E70000F87F10B500F07DFA006819
:100DB00010BD10B5044600F077FA046010BD0000C5
:100DC000FFB50C461E468FB003CA089009914F002C
:100DD0007D0D00D16D1E002108460020C046032174
:100DE000099A89050840002A03DA82008018400821
:100DF0000840800D01280A9002DD0020C0430A90BF
:100E0000089807430DD0F048F049281848430714C4
:100E1000189800281DD07542291E1DDD0A984242EF
:100E20001BE01898012802D00020302104E00020A7
:100E3000F24305E02154401CB042FBDB3046002267
:100E4000189B002121540F998B600A60486013B0F1
:100E5000F0BDBD1B6D1CDFE70A9A002900DA69426C
:100E60000BA800F0A7FA0BAB07CB03AB07C308999D
:100E7000099800F00BFB6B4607C30146D4480918DC
:100E8000002D00910BDDD24903980A9A494240187F
:100E9000002303A90390684600F068FD08E0039969
:100EA0000A9A0023081803A90390684600F008FD79
:100EB0006B4607C30004000C03D00020C043410868
:100EC00000E01046189A002A03D00022009215462E
:100ED0001EE0751E05D400F0EBF9303262556D1E30
:100EE000F9D501220843079602D000227F1C04E0B6
:100EF0002078302801D100227F1E002A069787D053
:100F00001EE0112D07DA00F0D3F9303262556D1C66
:100F100002460A43F5D1084303D00098002819D0AF
:100F20000EE00021681E05E0235C625C63542254DD
:100F3000401E491C8142F7DBA81B401E0795069006
:100F4000079A18990020A0540F98079B069A816071
:100F50000CC07CE711260020189059E7D21DF0B58F
:100F60000D460446D10893B0C90003C90C900D91F9
:100F700005F04EFB02460D98C00F01D02D2007E072
:100F80002068810701D52B2002E04007C00F4001F7
:100F9000032A0F9001D0072A05DB03462946204685
:100FA00000F0C4F90EE12078800601D5E76900E081
:100FB00006272846652D04D0662814D0672D69D1F0
:100FC0002DE00020112F009001DB112300E07B1C9D
:100FD0000CAA03A910A8FFF7F3FE11990026109898
:100FE0007D1C0E9142E001203B460CAAC0070B90ED
:100FF0000120009003A910A8FFF7E2FE119D1298AE
:101000001099002600280E9501D1781C0D18781B28
:1010100002D446427D1C761EE81B00903AE0012F68
:1010200000DA01270020112F009001DD112300E0DC
:101030003B460CAA03A910A8FFF7C2FE11993D4632
:10104000109800260E91217809070BD40E99A94219
:1010500000DA0D4603A9012D04DD4A19203AD27F9A
:10106000302A06D0B84201DA011D04DA01210091CC
:101070000FE06D1EEFE7002802DC86192D1A03E051
:10108000411CA94200DD0D46801B401C0090012040
:10109000C0070B902078000705D40098A84202DB17
:1010A0000020C043009069460020C8720B980121BF
:1010B00002AF0337C907884225D0022010902B20A9
:1010C00011900B9800280BDA40420B902D201190C4
:1010D00006E00B9800F032FE30317F1E0B90397025
:1010E0001099481E00291090F3DC0B980028F0D1CD
:1010F00011987F1E38702088000501D5452000E03A
:1011000065207F1E387001A8C01BC01D0B900F9872
:10111000002800D0012041190098C01709180B9829
:101120000818A169081A401EA0612078C00602D4E0
:101130002046C046C0460F98002805D06268A168C6
:101140009047206A401C20622078C00625D52046A2
:10115000C046C04621E0002E07DB0E98B04204DDF9
:1011600003A86268805DA16802E06268A16830201F
:101170009047206A761C401C20620098401E002880
:1011800000900AD100F08CF8C06862680168405C89
:10119000A1689047206A401C206228466D1E0028E6
:1011A000D9DC07E062683878A1687F1C9047206A24
:1011B000401C20620B99481E00290B90F2DC20464F
:1011C000C046C046032042E601FCFFFF104D000070
:1011D000E1DFFFFF01694A1C02610878704700B532
:1011E0008FB0029100210591054901937944039143
:1011F000114604906846FFF793F80FB000BD000059
:10120000E5FFFFFF0A681070521C0A60704700007B
:1012100030B5C30D1906214A090E31D0FF292FD050
:1012200000283ADB01025002014301207D33C34014
:1012300000D24908012080071724091A240649080A
:1012400082102343FF252D064C00211A04D4891A4D
:1012500002D45400201800E0214652085B19F3D54F
:101260001A220446944007D382068A4203D1802181
:101270008030884300E08030C009D905081830BDAF
:10128000FF2904D04100FAD0C00FC00730BD410291
:1012900001D0104630BD0028FCDAFAE70000C07F1C
:1012A00000487047340100200048704714010020B6
:1012B0000B4670B5024689078008084319469D0809
:1012C000141AA94125090807054308092C194841A2
:1012D000250A01060D43010A2C194141200C0D0479
:1012E00028430D0C00194D41002140194D41C00803
:1012F00069070843E908840F8D00254384002418FA
:101300004D4124196D41121BAB4107E00925ED4306
:101310002C11521963410024401C61411C460A25CE
:101320000026551BB441F1D270BD0000F8B51F4630
:10133000044601230068DB02032601461840072A01
:1013400005DB002801D017A506E017A504E000285A
:1013500001D016A500E016A5102081432160A069E8
:10136000C01E002FA06101D0401EA0612046C046D3
:10137000C046002F09D038466268A1689047206AAD
:10138000401C2062C01C206206E0206AFAE7626806
:101390002878A1686D1C9047761EF8D22046C0467A
:1013A000C046F8BD4E414E006E616E00494E46008B
:1013B000696E6600F7B516468AB0334878446C46C5
:1013C00003467C33C06F5A689B680DC42E4878442E
:1013D000763003AC0DC80DC43720C0010818372182
:1013E0001B30FFF78BF805460C46803D1B3C02D5B1
:1013F0006442012000E000200027099010E0E0078F
:101400000CD00C2020497843794432464C3941189D
:101410006846012300F054FA6B4607C364107F1C32
:10142000002CECD1184F7F442E3F16E0E80712D075
:101430002001C0190EC80691089307920068F04277
:1014400001D1981908903246012306A903A800F09B
:1014500037FA03AB07C36D10641C002DE6D1099861
:10146000002806D032466946012303A800F07EFA20
:1014700005E001233246694603A800F021FA0A9BE1
:1014800007C30DB0F0BD0000C45300000346400088
:101490000A4610B5400D0BD00121C9070F24A40244
:1014A00000191C0364082143540D2143D20207E0B4
:1014B00000210120F2E7D40F490021435200401ED1
:1014C0000029F8DADB0FDB07184310BDFFB50D4626
:1014D000144685B04868516805F082F80091019083
:1014E000A868A16805F07CF802910390A86861687B
:1014F00005F076F8029A12188242029201D2012077
:1015000000E00020019A0B18D2180028019202D0A6
:101510008A4202D903E08A4201D2012000E0002081
:101520000099081800906868A16805F059F8029AB7
:1015300012188242029201D2012000E00020019A9A
:101540000B18D2180028019202D08A4202D903E077
:101550008A4201D2012000E0002000990818009082
:101560002868216840004900400849084018FA49A5
:10157000471814E001994000C90F084300900198F2
:1015800002994000C90F0843019002980399400056
:10159000C90F08430290039840007F1E03900098F3
:1015A0000028E7DA0898002801D0EC4E00E0002679
:1015B000B74201DA012000E00020002804902AD080
:1015C000F71BF806C00E15D0029B2021091A039ABA
:1015D0008B401A430392029A019BC2408B401A43EC
:1015E0000292019A009BC2408B4000991A430192DB
:1015F000C14000917B110DD06F460320C11A03D565
:1016000000218200B95003E08A008100BA587A5064
:10161000401EF3D5374603980299002800D00120D8
:10162000014308980291002808460CD0002800D0F9
:1016300001200199019A490508430121D20AC902F2
:10164000D202019200E001210E9B0122D207012B60
:1016500002D0002B03D013E0002807D120E09042F5
:1016600004D890420CD1019B0B4209D0019B591820
:10167000019105D10099491C009101D17F1C009274
:1016800000280DD0102108460020C04604980028EC
:1016900006D00F98002803D0082108460020C04635
:1016A00028682168019B009A4840C10F0598C90726
:1016B00039430EC009B0F0BDFFB587B0099A08984C
:1016C0000899536892684068896896460022039397
:1016D00017469446089A12685300099A5B081268E4
:1016E000520052089A1A9E4BD4180A9A002A01D026
:1016F000352200E040220692002201231546049282
:10170000DB07059324E0002D05D175460346039EB3
:101710004D1BB34109D375466646039B491B049D87
:101720009841059B7519AC465F4163463B4308D021
:10173000059B049EDD0776082E435B0804960593FF
:1017400001E0521E641EC50FED0749184041521CAE
:10175000069B9A42D7DB002D04D17546039A6B1A7B
:10176000824101D203200CE0039A0B466B404240B9
:10177000134303D0014303D0012002E0022000E024
:101780000020614601910021009702910A990029E9
:1017900005D0614640020143704B019102E0800791
:1017A000002302909C4201DA012000E000200700A3
:1017B0003AD01A1BD006C00E15D0029D2021019CE4
:1017C000091AC5408C402543029C8C4000D001245E
:1017D0002543019C0295009DC4408D4000992C43F7
:1017E0000194C140009154111DD06D460221002288
:1017F00002290CD10320001B07E0002804DB86002F
:10180000AE59002E00D00122401C0328F5DB081B36
:1018100002D588002A5004E08000285810438A002E
:10182000A850491EE3D51C460A98002802980CD0FF
:10183000002800D001200199019A4905084301219F
:10184000D20AC902D202019200E00121109B0122BA
:10185000D207012B02D0002B03D013E0002807D1C0
:101860001FE0904204D890420CD1019B0B4209D05A
:10187000019B5918019105D10099491C009101D192
:10188000641C009200280CD0102108460020C0469D
:10189000002F06D01198002803D008210846002008
:1018A000C04608980999019A009B00680968484059
:1018B000C10F0798C907214382600AC00BB0F0BD71
:1018C00000B585B0019300920A460146002302A8A4
:1018D000FFF7FCFD02A807C805B000BDFFB50A462A
:1018E0001F4685B00799019301230091014602A884
:1018F000FFF7ECFD02990398049ECA0F4900D20736
:1019000000920F22490892028C1A0021002800DB65
:101910000C46450013486D08844214D3079A002AE8
:1019200004DA441E0026104DF64302E004460D463C
:101930000E46102108460020C046002F03D0042187
:1019400008460020C0462005E90A084300990843DC
:101950006905F20A1143ADE602C0FFFF013C000039
:10196000FF3F0000FF070000FFFFFF7F00B585B0CD
:10197000019300920A460146002302A8FFF79CFE4D
:1019800002A807C8A8E7FFB50A461F4685B0079911
:10199000019301230091014602A8FFF78DFE0299F1
:1019A0000398049ECA0F4900D20700920F224908EB
:1019B00092028C1A0021002800DB0C4645001148D9
:1019C0006D08844214D3079A002A04DA441E0026C4
:1019D0000D4DF64302E004460D460E461021084622
:1019E0000020C046002F03D0042108460020C04636
:1019F0002005E90A0843009908436905F20A1143E2
:101A000058E60000FF070000FFFFFF7FF7B505461F
:101A10000C46C8680521C90488430121890508438B
:101A2000E060800602D5204600F0D1FA7249E068F5
:101A30000140022903D0204600F068FABEE00521EB
:101A4000012249030140D20391420FD1C00306D5C0
:101A50006168E06A884200D80846606006E0206954
:101A6000E0626060606900F0AAF9A061A1680022EC
:101A7000EEB200290EDAE06883050BD4C943A160F9
:101A80000921226049030843E0606068411C6160ED
:101A90000670AEE0E068012149030843E0600020E1
:101AA00020602069002831D1606900F07AF90125B1
:101AB00027462437ED02002816D0A0898005800F24
:101AC00008D0E06900F0A5F90028206102D0E068A4
:101AD000284318E001202761E061E0680321090242
:101AE0008843012189020DE0E06900F092F90028A5
:101AF0002061EFD0E0682843E0608105890F03D1C1
:101B0000FF2101310843E06020696060E2683B4FDB
:101B10002569D00520D56168E06A884200D808466A
:101B2000411B05D02246284600F0FAF9002845D18D
:101B30000298002804D0E56200206560A06055E0AE
:101B4000681CE0626060E069401EA060E0683843A5
:101B5000E06030462E70FEBD0298002801D03A4069
:101B600009E06068411C61600670E06838430A2E35
:101B7000E06006D00022E16A6068814203D90B462A
:101B800002E00122F7E70346A7895B1B7F0504D427
:101B9000E7699F4201DD002A1ED0814200D801463C
:101BA0000F1A0020E5626560002BA06009DD224667
:101BB0001946284600F0B4F9002802D00020C0439E
:101BC000FEBD002F08D0A069E5626560C01BA06162
:101BD000E06810210843E0600298002809D061689D
:101BE000A069E562491B40186560A0610120C043FF
:101BF000FEBD3046FEBD0000821000000000010066
:101C000010B543485421FEF769FC42485421FEF7C1
:101C100065FC41485421FEF761FC40483C493D4B7E
:101C2000404A01603E4803603B4810605A1C0A6508
:101C3000411C1965012101653C48354A3AA17844A7
:101C400000F0EAF9002804D1384878440C3800F054
:101C500087FA38482F4A36A1784400F0DDF9002889
:101C600004D1344878440C3800F07AFA32482A4AD1
:101C70002FA1784400F0D0F9002804D12E487844F0
:101C80000C3800F06DFA40232148DC000021224688
:101C900000F016F9002804D0244878445C3800F09D
:101CA0005FFA1C4822464023002100F009F9002871
:101CB00004D0204878445C3800F052FA1648224696
:101CC0001023002100F0FCF8002804D01A487844C2
:101CD0005C3800F045FA10BD0F4870B5006D44083F
:101CE0000B48640000F010FA0A4800F00DFA0A48A8
:101CF00000F00AFA09E0206D450820466D0000F06A
:101D000003FA204600F0B6F82C46002CF3D170BD43
:101D1000180000206C000020C000002000000020FF
:101D2000040000200800002072000000D64B0000D4
:101D300077000000C04B0000AA4B0000014680085D
:101D4000081A02091018020A1018020C1018C0080C
:101D5000820012185200891A01E0401C0A390A292F
:101D6000FBD270470EB501910090FEF777FB029011
:101D700069460120ABBE0EBD08B569460090022041
:101D8000ABBE08BD1FB56B4607C369460520ABBE99
:101D900004B010BD1FB56C460FC469460620ABBE2B
:101DA000F6E708B5694600900920ABBE08BD1CB532
:101DB00000900A2001916946ABBE1CBD704708B572
:101DC000694600900C20ABBE08BD0000004870477B
:101DD000140100207546FFF7F9FFAE46050069467D
:101DE0005346C008C000854618B020B5FEF7EAF992
:101DF00060BCB64600260027C0C5C0C5C0C5C0C56A
:101E0000C0C5C0C5C0C5C0C5403D490849008D46D4
:101E1000704770B5064600F003FA056830460B308F
:101E2000C408E400B44201D8002070BD68682A46A6
:101E3000002818D00168A14211D30B462146083171
:101E40008B4208D3436801194B6003681B1B0B606E
:101E50005160046001E041685160001D70BD0246A0
:101E600040680028E6D12146284600F0E1F9002824
:101E7000DCD170BD70B50446051F00F0D1F90068D3
:101E8000002C1AD0446801E020466468002C01D080
:101E9000AC42F9D301680A18AA4204D12A6805465F
:101EA0008918016000E0456028684119A14205D108
:101EB0006168696021684018286070BD6C6070BD01
:101EC00070B5C468A50713D0650211D4D51FF93DBC
:101ED0000AD0FF3D6D1E07D0FF3DFF3D022D07D10B
:101EE00001462431012305E0074E5D1EB54201D3B2
:101EF000012070BD0161C36141600F2109028C4363
:101F00001443C460002070BDFFFFFF00C168802241
:101F1000114392039143C1600021816001607047C9
:101F2000F7B515460C4682B0506900903748D7681F
:101F3000074209D0A9690098FFF739FF002815DB8F
:101F40003248C0430740EF60314EB44200D82646C5
:101F50003B46324602990098FFF714FF4200A969F8
:101F60005208B21A89180028A96106D02846FFF73E
:101F7000CDFF0020C04305B0F0BDA41BE4D100207C
:101F8000F9E770B504460569C06A6168884200D8FF
:101F90000846E1680522D2049143E160C90314D5E3
:101FA000A84209D02246411B2846FFF7B9FF002866
:101FB00002D00020C04370BDE56200206560A060D3
:101FC000E068012109048843E060002070BD10B57D
:101FD0000446C06820218843E060A16AA069884265
:101FE0000ED02046FFF7CDFFE068032109038843A8
:101FF00010210843E060A06AA0612069E06260608F
:102000000449E0680840E06010BD000010000200D4
:10201000FFFFFF7FBFBFFFFFF7B516460C460098D6
:10202000002843D0104600F06FF82078611C61282A
:102030000AD0722802D0772839D102E00125002485
:1020400004E00225042401E02D4D0824022203238C
:1020500001270878491C2B2806D0622807D0203990
:10206000C87F742807D008E01D431443F1E704201B
:1020700005433C43EDE71020044300982146FFF759
:1020800071FE411C13D00021316171600121F560A6
:102090004902F1617061200704D530460222002117
:1020A00000F00EF9306D384330653046FEBD00203B
:1020B000FEBDF8B50D460646124C206DC10704D092
:1020C000410804D044086400F7E7224610E0542099
:1020D000FFF79FFE070010D07908206D490001220C
:1020E00011430843542120653846FEF7F7F93A4674
:1020F00029463046FFF790FFF8BD0020F8BD0000EC
:102100000280000018000020F8B504460026476948
:1021100000690090E568A80717D02046FFF731FF57
:102120003846FFF729FE002800DA761E280502D57A
:102130000098FFF79FFE4C212046FEF7CFF9206D57
:102140004008400020653046F8BD0020C043F8BD7F
:1021500010B50446C046C0462046FEF722F810BD22
:1021600010B500F02DF900F025F910BD82078B079E
:102170009A423FD170B5920F0AD0032402780B78AF
:10218000401C491C002A33D09A4231D12042F5D15B
:10219000214EF40104C808C9951B9543254018D168
:1021A0009A420FD104C808C9951B9543254010D108
:1021B0009A4207D104C808C9951B9543254008D108
:1021C0009A42E7D012BA1BBA01209A4200D240428A
:1021D00070BD12BA1BBA2DBA18241000E0401900C5
:1021E000E140401A05D12E00E64002D1083CF4D16E
:1021F000D01A70BD02780B78401C491C002A09D007
:102200009A4207D102780B78401C491C002A01D061
:102210009A42EFD0D01A70470101010170470000C7
:10222000004870471C010020704770477047704796
:1022300038B504460A4600206946C046C046002814
:1022400005D002462046009900F0DAF8012038BD9A
:1022500010B5012000F029F910BDF8B5C046C04600
:10226000054600200C460C20C0460646A819A04290
:102270000DD9324669460020C046C046070001D14C
:1022800000F013F90098A04200D00546C419FFF7EA
:10229000C7FFF61D07460560F008C000461928462E
:1022A00000F008F8B44204D031463868A21B00F0B0
:1022B000A7F8F8BD00210160416070470C2070470D
:1022C000F8B5044616460D464769007B800730D0B6
:1022D0003846FFF766FD00282BD132461026002A2B
:1022E00025D0012A02D0022A23D104E0204600F0A2
:1022F000A1F845191BE03846FFF761FDE16831435D
:102300000028E16004DA2046FFF700FE0120F8BD56
:10231000C9030BD56268E16A914200D81146A269EF
:1023200089182269891A814200DD08462D18002D7E
:1023300001DA0220F8BDE16A6068E268814206D2F3
:102340009103E06203D5012149048A433243A6691F
:10235000AE4211DCE16A814201D90B4600E003463E
:102360009F192369FF1AAF4206DD814201D90F464A
:1023700000E007469F4206D1202002430020A060D3
:10238000A56220600DE0AD1BE669AE1B8142A66030
:1023900000D90846C01A281A206058196060202009
:1023A0008243034802400020E26040342072F8BDBE
:1023B000BFCFD7FF10B5002801D000F01BF810BD2B
:1023C00010B5014602A000F056F8012010BD000033
:1023D00053494752545245443A20526564697265E4
:1023E00063743A2063616E2774206F70656E3A20C3
:1023F0000000000001491820ABBEFEE726000200E5
:1024000010B50346406801E003464068002801D04B
:102410008842F9D31868C3188B4206D0CB1CD80861
:10242000C000001D411A521A0146081D0A60FFF73C
:1024300021FD10BD10B50146C268900703D090067B
:1024400007D5886A0AE0FEF72FFF01210160881E88
:1024500010BD8B694868C0180B69C01A40310B7AEF
:10246000002B02D0497A401A10BD1103FCD5002878
:10247000FADD401E10BD70B505460C460A2000E08E
:102480006D1C00F018F8002D06D028780028F7D130
:1024900002E0641C00F00FF8002C02D02078002825
:1024A000F7D10A2000F007F870BD10B500F00AF867
:1024B000FFF780FF10BD08B5694608700320ABBE6A
:1024C00008BD000010B5012805D0002103A0FFF7CA
:1024D000D2FF012010BD09A1F8E70000534947527F
:1024E000544D454D3A204F7574206F6620686561E4
:1024F00070206D656D6F7279000000003A204865AC
:102500006170206D656D6F727920636F7272757086
:102510007465640010B5014624314A78022A14D14A
:10252000026813680E24A343136013680124A343B5
:102530001360026C406C1C2303402046984050609E
:102540004C70002000220A7010BD0422C2630120DA
:1025500000220A7010BDB0B5014624314A78022A23
:1025600018D1026813680E24A34313601368012571
:10257000AB431360026C436C1C241C402B46A340ED
:10258000536000240C704D70816B002900D0884787
:102590002046B0BD0421C1630120B0BD2521405CAF
:1025A00070470000B0B5044600F0E4F80546601C32
:1025B00002D004480078041900F0DCF8401BA04267
:1025C000FAD3B0BD0C000020F0B58AB0029009919A
:1025D0000A68002A00D1B2E05A48029B834201D027
:1025E000062000E005200B2109075918890A9B05E0
:1025F00059180091052900D3009000273C463E461B
:102600000CE0114350480160761C0998026810469E
:10261000F0403F1DA41C002800D190E00121084695
:10262000B0400240F0D00396019205910697032531
:102630002946A140CA43099926464C6823462B40A7
:102640005F1E012F08920494079610D80F46029936
:102650008D681540FF68B7402F438F60E506ED0F8A
:10266000039EB5404F6887432F434F6006E0032B1E
:10267000039E03D12B46029F049C1EE0029FF86834
:102680000899084009998D6807998D400543FD60B8
:10269000022B049C11D11C20069908400F21814077
:1026A000F3089B00FC18256A8D43099B196981403A
:1026B000294321625C6803232340079DAB403868AF
:1026C0000899084018433860A0032C46800F069FE5
:1026D000059B99D01D490868184308600C203840B4
:1026E0000F218140032335469D43194AAB588B4344
:1026F000009981401943A95013488168099840689E
:10270000C30202D5019A114301E0019A91430E4B95
:102710009960D968830201D5114300E091430A4BC7
:10272000D9605968830301D5114300E09143064BFA
:1027300059601968C00300D563E7914362E70AB0A6
:10274000F0BDC046001C005000040140341002409F
:102750000800014042690B4693430A401104C9181E
:1027600081617047002A02D01822815070472822C8
:1027700081507047014800687047C046A00500209E
:10278000B0B50246034640335C780220202C17D1B6
:102790001C78012C14D02420587010680268012481
:1027A000A2430260220305689543056002680A435C
:1027B00002600168214301600020187020215970D7
:1027C000B0BDB0B50246034640335C780220202CF1
:1027D00017D11C78012C14D024205870106802687E
:1027E0000124A24302600F221202056895430902E8
:1027F00029430160016821430160002018702021F5
:102800005970B0BD70477047F0B581B00122150214
:1028100001688B691C462C40664266410F68802423
:102820003C4067426741374304D1466C0127374338
:102830004764CD61654265415E05164600D52E466A
:10284000002E05D19502466C082737434764CD61B9
:10285000654265419B05134609D4002B0AD0416CA3
:102860000B22114201D001F0F1FE01B0F0BD2B4668
:10287000002BF4D15202436C02241C434464CA610D
:10288000416C0B221142EED1EFE780B502689169ED
:10289000436B1268002B00D0984780BD7047000042
:1028A000F0B581B0002822D004460546403568784E
:1028B000002804D100202870204600F033FB24209B
:1028C00068702068026801218A4302600F221206A4
:1028D0006368934303618368194A13408360A36864
:1028E000E668012E06D1CE03334383600AE001205F
:1028F00001B0F0BD2127BF023B438360022E01D10E
:10290000CB02436043680F4E1E434660C3681340CA
:10291000C360226963691343A26912021A43C26049
:10292000E269236A1343036002680A4302600020DD
:102930006064202169702063A87001B0F0BDC046BA
:10294000FF7FFFFF0080000270470000F0B587B0F6
:10295000069104460146403148780225202800D0DF
:10296000A0E005910878012800D19BE00393049230
:10297000012505980570FFF7FDFE06462168886968
:10298000000419D42120059A507010209070002264
:10299000626403986085049860626263608D000AD7
:1029A000D04D02921DD0069A2A404868CE4D05406F
:1029B000091DFF2346481FE0EF0302E08869384203
:1029C000E0D0FFF7D7FE801B21681A28F6D388696C
:1029D0003842F3D0606C202108436064059A51703E
:1029E0006DE0638D4868C04A024006982840DDB219
:1029F0002D042D18091D35480C9F2A4302430A60F7
:102A00002385608D002845D00698B6490840069079
:102A100012E0608D208521684A68B64B1A40C0B22A
:102A20000004104301225206091D069B184310435F
:102A30000860608D00282DD020463946324602F0CD
:102A40008DFA012500282DD12068616A0A788262FA
:102A5000608D401E6085481C6062208D401E208570
:102A6000618D0029E5D00004E3D100968021002289
:102A700020463B4602F0C0F9002813D1608D000AC1
:102A8000C7D0FF202085216848689A4A1040091D58
:102A9000994ACAE720463946324602F01CFA002815
:102AA00003D00125284607B0F0BD20682021C16170
:102AB0004268924B13404360059A5170029D00207A
:102AC00010709070284607B0F0BDC046002000028C
:102AD0000020FF01F0B589B0044606464036707804
:102AE0000225202847D10E9F002F41D00F980028A3
:102AF0003ED00590307801283DD003930292069194
:102B0000012007903070FFF735FE03462068816989
:102B10000904089332D41099079122217170402141
:102B2000B1700022049262640599618567626263F4
:102B3000F649069A0A40039FF9B2090406928918D9
:102B40004268F34D2A40891801256A0389184160BB
:102B5000204607991A4602F001FA0028049843D14A
:102B60002068012F26D10299C9B28162089F31E005
:102B7000012568026064284609B0F0BD0798C503C6
:102B800002E081692942C6D0FFF7F4FD089BC11A13
:102B900020681A29F5D381692942F2D0606C20217E
:102BA00008436064717000203070B070079D284643
:102BB00009B0F0BD0299090A816220460799089F71
:102BC0003A4602F0CBF9002804980DD1206802990A
:102BD000C9B28162079B009740210022204602F083
:102BE0000BF90028049803D03070284609B0F0BDD6
:102BF000608D000A07D020684168C54A1140021D57
:102C0000FF203B4B09E0608D22685368C0490B40B0
:102C1000C1B209041943121D344B1943069B1943D1
:102C200011602085089A079B14E0608D208521683B
:102C30004A68BA4B1A40C0B200041043012252063F
:102C4000091D069B104318430860608D0028089AF0
:102C5000079B31D000920421002720463A4602F01B
:102C6000CBF8002887D1606A2168496A0170608DBD
:102C7000401E6085606A401C6062208D401E208579
:102C8000618D0029E1D00004DFD1089800908021F7
:102C900000222046079B02F0AFF8002800D06AE728
:102CA000608D000AC1D0FF202085216848689B4ABA
:102CB0001040091D984AC4E72046194602F00BF956
:102CC000002800D057E720682021C1614268944B5A
:102CD0001340436071703770B7703D46284609B0A5
:102CE000F0BDC046FF030000009800FC0024000275
:102CF0000024FF01009C00FC0000FF0100E800FE32
:102D0000F0B589B005460646403674780220202C7E
:102D100009D10E9C002C08D00F9F002F05D00697DC
:102D20003778012F06D109B0F0BD01204102696456
:102D300009B0F0BD03930292059101200490307018
:102D4000FFF718FD089028688169090445D4109997
:102D50000791212171704021B17000276F6406999D
:102D600069856C626F636949059A0A400399C9B223
:102D70000904059289184268654B1340C918654AD1
:102D80008918416028460799089C224602F0E6F817
:102D900000281ED106972868039901290BD00299B3
:102DA000090A816228460799224602F0D7F80028CE
:102DB000069F0ED128680299C9B28162079B0094D0
:102DC000802100242846224602F016F80028069F9B
:102DD0001ED03770049809B0F0BD0498C70302E014
:102DE00081693942B3D0FFF7C5FC0899411A2868B8
:102DF0001A29F5D381693942F2D0686C2021084341
:102E00006864717000203070B070049809B0F0BD33
:102E10000394059C012004904206688D000A3E4BF5
:102E20003E49069207D028680A4641681746114075
:102E3000021DFF200DE0688D2B6802935B680F4632
:102E40000B40C1B209041943029B1B1D0293134698
:102E5000029A1943214311602885079B10E0688D71
:102E6000288529684A683A40C0B200041043091D09
:102E7000069A079B104320430860688D00282FD0D6
:102E800028461946089A02F069F8002825D12868D2
:102E9000696A0A788262688D401E6885481C68628B
:102EA000288D401E2885698D0029079BE5D00004E8
:102EB000E3D10898009080210022284601F09CFF71
:102EC00000280AD1688D000AC9D0FF20288529680A
:102ED00048683840091D104ACBE7049809B0F0BD96
:102EE00028461946089A01F0F6FF0028049800D0F9
:102EF00019E728682021C1614268094B13404360EB
:102F0000717003983070B07009B0F0BDFF0300001D
:102F1000009800FC002000010000FF01009C00FC64
:102F200000E800FEB0B586B000681649884201D0BE
:102F300006B0B0BD144D28680221084328602868F7
:102F40000840009004200590002403941220029071
:102F5000032004900002019000980C4801A9FFF79B
:102F600033FB01204005E9680143E9601725284645
:102F70002146224600F066F8284600F057F806B0D1
:102F8000B0BDC046005400402C1002400004005068
:102F9000704770471D48007802490A681018086099
:102FA0007047C046A005002080B50848016840224F
:102FB0000A430260032000F00BF8002801D0012032
:102FC00080BD00F027F8002080BDC04600200240F0
:102FD00070B504467D20C0000C4E317803F005FA30
:102FE00001460B48006803F000FA00F095FD01254A
:102FF000032C08D8002806D10025E84321462A469C
:1030000000F020F87460284670BDC0460C00002017
:1030100014000020044801680122114301601107D7
:1030200042680A434260704734100240002805D4C9
:103030001F21084001218140014801607047C046BE
:1030400000E100E0002805D40322034693430A4A26
:103050009A1803E00C220240064BD2188007C00EDB
:103060008901C9B28140FF23834010689843084317
:103070001060704714ED00E000E400E0F0B589B0A6
:10308000066801252F02EA0211462031874B0E42C5
:103090007CD0059208902907143B186808400490DA
:1030A00002D118680843186001930291804C20688F
:1030B000384211D1206838432060FFF75BFB064699
:1030C0002068384208D1FFF755FB801B6428F7D9E8
:1030D0000325284609B0F0BD0326340573484C3853
:1030E000069001682140089B5868024603942240DC
:1030F0000096340491420AD102462240A242069E22
:103100000DD19A68039B1A40914205D107E0014610
:103110002140A142069E02D131688903D9D4634B74
:1031200059680794214021D0079A1040814203D06A
:103130000898007880060AD408988068079A10409A
:10314000814213D008980068059908420ED058684B
:10315000E9045A680A435A605A688A435A60014629
:10316000079A91435960384200D08CE0089806686D
:1031700005990E42079C59D1B1066DD404990029D6
:1031800004D1019C2168029A91432160F1070DD17D
:10319000B10713D4710719D4310720D43E4227D187
:1031A00071062ED40025310693D535E01968032227
:1031B0009143C2680A431A60B107EBD519680C2223
:1031C000914302690A431A607107E5D50321890218
:1031D0001A688A434169114319603107DED503211A
:1031E00009031A688A438169114319603E42D7D0A6
:1031F000032109041A688A43C169114319607106E1
:10320000D0D5012189061A688A43416A11431960A1
:103210000025310600D45CE703218A041968914334
:10322000006A08431860284609B0F0BD826811465C
:103230002140A1420BD10398024003231B05069DA8
:103240002C689C43194B089814432C60079C5A68BF
:103250000A435A60B10691D5426811462140A14205
:103260000AD10398024003231B05069D2C689C434A
:103270000E4B089814432C605A680A435A6004990C
:10328000002983D17DE7FFF775FA0546904C074B7F
:103290005868800500D569E7FFF76CFA401BA0422B
:1032A000F5D9009D284609B0F0BDC0464C1002403B
:1032B00000700040F0B583B00290002846D00E4662
:1032C00082480068012101910840B04216D27F492E
:1032D00008680125A843304308607D4CFFF74AFA8F
:1032E00007467A4800682840B04207D0FFF742FA04
:1032F000C01BA042F5D9032003B0F0BD02980068BE
:103300008107814D06D52968F0229143029A92687F
:103310000A432A60C0071CD16C4800680127384066
:10332000B04225D969490868B8430860684CFFF77E
:1033300021FA054665480068C00719D0FFF71AFA58
:10334000401BA042F6D9032003B0F0BD012003B01A
:10335000F0BD0298426829460C39012A32D0032A6E
:1033600035D0022A39D109688903019833D538E06C
:10337000029800684107644C07D5072109022268BA
:103380008A430299C96811432160000708D50720C4
:10339000C0022168814302980069C0000843206090
:1033A00021680807820F73487A44127952009744C3
:1033B00001617F6838042146083909680904490F0A
:1033C000884075E009684907019804D509E0096853
:1033D0008901019805D403B0F0BD096889050198F9
:1033E000F9D5296803200190814311432960FFF733
:1033F000C1F9074602984068354C032811D00228CD
:103400001DD0012829D128680C210140042900D1B0
:1034100082E7FFF7AFF9C01BA042F4D9019803B0CF
:10342000F0BD28680C2101400C2900D174E7FFF79A
:10343000A1F9C01BA042F4D9019803B0F0BD2868DF
:103440000C210140082900D166E7FFF793F9C01B62
:10345000A042F4D9019803B0F0BD28680007800F9E
:1034600000D159E7FFF786F9C01BA042F5D90198B2
:1034700003B0F0BD20460C380068C00612D53F48A6
:1034800016E08A02120F3C4B9A5C0902890F491C14
:103490002368DB0309D420460C380068C00603D437
:1034A000374802E0364803E03448504302F09DFFBD
:1034B00021680906090F074A515CC8401149086094
:1034C00005480068FFF784FD03B0F0BD002002400E
:1034D00088130000246800081000002009480068D4
:1034E000094909684905490F084A515CC8407047B5
:1034F00004480068044909688904490F034A515C7B
:10350000C8407047140000200C10024034680008C6
:1035100010B5844AD1680807830F16487B441B798D
:103520005B009F440108070D012000045168090455
:10353000490F884010BD1068C00613D50F4810BD54
:103540008B021B0F0C4CE35C0902890F491CD468E9
:10355000E40303D41068C00606D40948584302F0B7
:1035600044FF10BD064810BD0448584302F03DFF1B
:1035700010BDC04640420F00386E000800093D00F3
:103580000024F400F0B589B0002856D0654EF168EB
:103590000C220A400692012105910904F768049162
:1035A0000F4007900078C00710D00698082806D072
:1035B00006980C2800D0D7E0002F00D1D4E0306866
:1035C000800303D507984068002852D007980078F8
:1035D000800735D407980078C0064DD40798007846
:1035E000000767D407990878400700D59CE0087861
:1035F000800600D523E10798846A002C1AD006982B
:103600000C2800D06FE1012C33D0F068049A0240FE
:10361000079BD96A8A422CD10F21890401401A6B79
:10362000914226D1032189050840596B88420598AB
:1036300000D05BE2002009B0F0BD012009B0F0BD70
:10364000079BD868810604D5316820221143316078
:1036500090430699042906D006990C2900D0AEE0C3
:10366000002F00D0ABE0316800283AD1042211408D
:1036700037D0059809B0F0BD0698002800D1B4E015
:1036800030680799C969002900D108E101210A02BF
:10369000104330604C02FFF76DF805463068204259
:1036A00000D00FE1FFF766F8401B0228F6D903208F
:1036B00009B0F0BD306D07994969002900D1DDE0FE
:1036C000012108433065FFF755F80546306D800746
:1036D00088D4FFF74FF8401B0228F7D9032009B020
:1036E000F0BD1F21090272688A431969090211435A
:1036F000716031680922914301433160F168080724
:10370000820FFB485200C0467A4492885200974488
:1037100003002001DE01260170680004410F0498B7
:103720008840D4E10010024001221107B06B08402C
:10373000029002D1B06B0843B0630191039214026E
:10374000F24F3868C00525D4386820433860FFF749
:1037500011F80546386820421CD1FFF70BF8411BD1
:1037600003206429F6D9C1E10798406805994C0403
:103770000499884209D005210904884200D0C9E093
:10378000059880043168014331603068049908432A
:103790003060CFE007988068002800D122E1052141
:1037A00009028842039A00D133E1A04200D134E1FA
:1037B000306DA04330659102306D88432FE1316850
:1037C000002800D1DDE00922914301433160FEF77A
:1037D000D1FF05463068400700D5F9E0FEF7CAFF83
:1037E000411B03200229F5D980E130688005079B41
:1037F00003D5D869002800D13BE707204003716852
:103800008143586A01437160FF21090672688A4347
:10381000196A090689187160400B04998140F068A3
:103820000006000FB64A105CC140B6480160B648B9
:103830000068FFF7CDFB002800D057E1CEE6B06866
:1038400007998969002900D1ACE001210843B060E3
:10385000706B084370634803AE490A6802430A600C
:10386000FEF788FF0546B068800700D5C3E6FEF77F
:1038700081FF411B03200229F5D937E1012188434B
:103880003065FEF777FF0546306D800700D4A9E666
:10389000FEF770FF411B03200229F5D926E1012123
:1038A0000A02904330604C02FEF764FF0546306820
:1038B000204200D192E6FEF75DFF411B0320022962
:1038C000F5D913E10720400371688143079A506AD4
:1038D00008437060FF20000671688143106A00068B
:1038E000401870607AE601273806316881433160FC
:1038F000FEF740FF0546022C00D0AAE07F063068A4
:10390000384200D1C1E0FEF735FF411B03200229F8
:10391000F5D9EBE03168049A914331603168114088
:10392000089108990599890432688A433260002811
:1039300000D19CE0FEF71EFF05463068204200D013
:1039400044E6FEF717FF401B6428F6D9032009B0B0
:10395000F0BD3068C00600D487E06748B7E08A024F
:10396000120F644B9A5C0902890F491CF368049C8E
:10397000234200D0A8E03068C00600D5A3E05F482D
:10398000A2E0012081433160FEF7F4FE0546306875
:10399000400700D41EE6FEF7EDFE411B032002297E
:1039A000F5D9A3E001218843B060480359490A686A
:1039B00082430A60FEF7DEFE0546B068800700D449
:1039C00019E6FEF7D7FE411B03200229F5D98DE049
:1039D0001F200002716881430798006900020843B4
:1039E0007060F7E5306DA0433065039A9002316D49
:1039F000814331655402464FFEF7BCFE0546306DEB
:103A000020421CD0FEF7B6FE411B0320B942F6D976
:103A10006CE09002316D01433165306D20433065BB
:103A200054023B4FFEF7A6FE0546306D204206D1FC
:103A3000FEF7A0FE411B0320B942F6D956E00298DA
:103A40000028079900D0D2E5B06B019A9043B0638B
:103A5000CDE57C063068204200D1EBE5FEF78AFE1A
:103A6000411B03200229F5D940E024482FE0FEF74E
:103A700081FE05463068204200D1A7E5FEF77AFEB8
:103A8000411B03206429F5D930E0FD200004F168D2
:103A90008143079B2C330DCB084310431843F06040
:103AA0002748401C316801433160FEF763FE04463D
:103AB0003068384200D0BDE5FEF75CFE011B0320F4
:103AC0000229F5D912E00C48504302F08EFCF1684F
:103AD0000906090F0A4A515CC8400A4908600A48A9
:103AE0000068FFF775FA002800D173E509B0F0BD52
:103AF00040420F00386E000800093D000024F40029
:103B0000246800081400002010000020007000400D
:103B10008813000020000140401E010E01D001204A
:103B200070470749074A5060074803680B40032164
:103B300089075918016000209060072111607047C3
:103B4000FFFFFF0010E000E020ED00E010B538229C
:103B5000825C012A01D1022010BD024638320223C4
:103B60005370006843687024A3430C681C43836847
:103B700044605B4CA04207DC0124A407A04209D0AA
:103B80005A4CA04206D00AE0564CA04202D0564CF5
:103B9000A04204D18024A3434968194381600020D6
:103BA00010700121517010BDB0B5002819D0044625
:103BB000054638356878002804D100202870204652
:103BC00000F04CF80220687020680168444B98426D
:103BD00009DC0122920790420BD0444A904208D05F
:103BE00017E00120B0BD3F4A904202D03E4A9042C9
:103BF0000FD170229143A2680A4321463A3198427C
:103C00000CDC01239B0798420ED0384B98420BD016
:103C100010E00A4621463A319842F2DD314B984293
:103C200002D0314B984205D103231B029A432369EA
:103C3000134300E013468022934362691A430260F3
:103C4000E268C26262688262012242610A710A709D
:103C50004A708A70CA706A700020B0BD10B5012128
:103C60008A070068904200D010BD074802680A43E6
:103C700002600F24002120460A46FFF7E3F92046A0
:103C8000FFF7D4F910BDC046381002403921415C1D
:103C9000012912D10146393102220A700068C26836
:103CA00001210A43C2600E4A904208DC8A07904212
:103CB0000BD00E4A904208D00CE001207047094A10
:103CC000904202D0084A904204D1826807231340F0
:103CD000062B02D002680A43026000207047C046EB
:103CE000FF070140001401400008014000040040AB
:103CF000F0B53822825C012A01D10220F0BD0246D3
:103D0000383202235370504E3346773B0468A06824
:103D10001840A0600D6800234F2D1EDC1F2D35DDDF
:103D2000202D37D0302D35D0402D00D086E0206AB0
:103D3000256A0126B5432562A569F026B543CE68FC
:103D400036012E43A6610A25A84349680143216232
:103D5000A06847210143302069E06F2D26DD012056
:103D60004703BD4240D00003854218461AD0702D4B
:103D700064D1A06830404D688E68C9682E4309023E
:103D800031430143A160A068772139E0002D01D0C3
:103D9000102D53D1A0687021884305430720284384
:103DA000A0601846137001215170F0BD502D29D02C
:103DB000602D43D11020C043256A054025620F25A0
:103DC0002D03A669AE43CD682D033543266AA56150
:103DD000A025AE434968090131432162A1686725E6
:103DE0000D430540A56024E0A56835404E688F6806
:103DF000C9683743090239432943A1608003A16898
:103E0000014315E0206A256A0126B5432562A569AC
:103E1000F026B543CE6836012E43A6610A25A84395
:103E2000496801432162A068572101432020814352
:103E3000A1601846137001215170F0BD012013706C
:103E400001215170F0BDC046FF00FFFF7047B0B5C3
:103E500004464020C54320680169890717D5C16819
:103E6000890714D529463E310161012121768069F7
:103E7000800703D02046FFF7E9FF05E0204600F069
:103E800071F8204600F06FF8002020762068016964
:103E9000490718D5C168490715D529463C31016144
:103EA0000221217680698005800F03D02046FFF72C
:103EB000CDFF05E0204600F055F8204600F053F80D
:103EC0000020207620680169090717D5C168090715
:103ED00014D529463831016104212176C069800753
:103EE00003D02046FFF7B2FF05E0204600F03AF885
:103EF000204600F038F80020207620680169C906C5
:103F000018D5C168C90615D5294630310161082187
:103F10002176C0698005800F03D02046FFF796FF09
:103F200005E0204600F01EF8204600F01CF80020B6
:103F3000207620680169C90709D0C168C90706D081
:103F400029463F310161204600F00EF820680169E2
:103F5000490606D5C168490603D50561204600F02B
:103F60001DF8B0BD7047704710B50B4C21462C3181
:103F7000884200D010BD6069401C606101F01CFEE9
:103F800001F02CFC60690A28F4DB01F06DFB01F004
:103F900079FC0020606110BD7401002070477047FB
:103FA0007047000080B500680649884200D080BD97
:103FB00005A0FCF73DFA0520000720210122FEF7AD
:103FC000D1FB80BD004C00405541525420457272D7
:103FD0006F72204F636375727265640D000000009C
:103FE000F0B589B00368D9691D682022089504924C
:103FF00015406C426C410127FA0216462F36079194
:104000000E40203E711E8E4126439E685DD0029573
:104010000393059706900546583501920F32079F86
:104020001742089807D0E4490140012334461C4058
:10403000611800D099E02B463D46102201460292BD
:1040400011404F424F410698016E012905980446E0
:10405000039A41D0E906074642D4002F43D00123FA
:1040600099050E4074427441E902064600D5264681
:10407000002E00D187E08021089A11404E424E4127
:1040800029060446069800D53446002C00D186E166
:104090004026324054425441690600D505940599A2
:1040A000002900D004E1EFF3108183F31088026847
:1040B0001368B343136081F310880021C16604992B
:1040C000C16700F021FA09B0F0BD816E002900D16E
:1040D000EEE0884709B0F0BD3C46E9060746BCD58E
:1040E0002746002FBBD1029810629068400651D439
:1040F0001D46588819885A88002A069B00D1D7E0A7
:10410000814200D1D4E0EFF31084012282F31088C1
:10411000089509256D011E683768AF43376084F341
:104120001088EFF3108482F310881D68AE68964300
:10413000AE6084F31088049C089DAC6200249C66E9
:104140001C66EFF3108482F310881A681568029ECB
:10415000B543156084F3108802225A66081A81B2AA
:104160001846FFF71CFF09B0F0BD190201404E428E
:104170004E41F90705980146039A5DD100295ED0AA
:10418000B90762D469E0190511620698FFF708FFC4
:1041900009B0F0BD069E706F006841688AB2002ABF
:1041A00000D185E01D461C88A24200D380E06980D2
:1041B0000068800635D4EFF31081012080F3108869
:1041C0007F4A203234682B4625681540256081F3EC
:1041D0001088EFF3108180F310883268946884436C
:1041E000946081F31088EFF3108180F310883268B7
:1041F00094684025AC431D46946081F3108804996F
:10420000996200213166EFF3108180F310883068E5
:104210000268029B9A43026081F31088706FFEF778
:1042200079F90220706628886988401A81B2304680
:10423000FFF7B5FE09B0F0BD31460029A0D11362E9
:10424000E96A1943E962B90707D5002C05D00221B4
:104250001162E96A04260E43EE62790707D5002C45
:1042600005D004211162E96A02260E43EE6202992A
:104270000C43664266413907044600D53446002C9B
:1042800004D108211162EC6A0C43EC6228469906BD
:10429000089D0D406C426C4101990F42059D069EA0
:1042A00008D1002D054609D0E96A002902990ED1EE
:1042B00009B0F0BD2546002D0546F5D11162E96A29
:1042C00004980143E962E96A00290299F0D0049850
:1042D00007404C424C41002F059800D020461F4615
:1042E000002805D1B16E002902D0304688473268D7
:1042F000E96A28230B40916840200140C91806D183
:104300003046FFF74FFE0020E86209B0F0BDEFF342
:10431000108187F310880922520133681C68944386
:104320001C6081F31088EFF3108187F310883268E6
:1043300093680897BB43936081F31088316E01291D
:104340000BD1EFF31081089A82F31088326813685A
:104350001024A343136081F310880499A9620021FB
:104360003166B1663168896849061FD5EFF310815F
:10437000089A82F31088326893688343936081F3CC
:104380001088706F002811D00C498163FEF7E3F8A4
:1043900000288DD0706F816B884709B0F0BDC16E69
:1043A000002900D184E7884709B0F0BD3046FFF707
:1043B000F9FD09B0F0BDC04620010004BD51000860
:1043C000DFFEFFFFB0B5002817D00446C06F0028FD
:1043D00005D1782000212154204600F02BF824201C
:1043E000E067206801680125A9430160204600F0CC
:1043F000F1FE002803D02846B0BD0120B0BD606AA0
:10440000002802D0204600F00DFE0920C0022168DD
:104410004A6882434A6088682A2290438860086814
:10442000012202430A60204600F066FE0546284647
:10443000B0BD0000B0B586B000683849884201D0F0
:1044400006B0B0BD0120C104114AD3680B43D3604C
:104450001168014311601168014000910620059028
:1044600003200490002403940221029101900098FB
:104470000520000701A9FEF7A7F80E2528462146CA
:104480002246FEF7DFFD2846FEF7D0FD06B0B0BDA0
:104490002C100240F0B5C36F202B10D1012300294E
:1044A0002CD0002A2AD0856801242603B54208D1E1
:1044B000CB0706D00369002B03D12046F0BD0220B4
:1044C000F0BD074650377A8000237B633A80C16491
:1044D0002121C167B54202D10169002901D00949F2
:1044E00000E00749C166EFF3108184F3108800688B
:1044F000026880241443046081F310881846F0BDDC
:10450000015400086154000880B5006803498842DE
:1045100000D080BD02A0FBF78BFF80BD004C0040A7
:1045200055415254205472616E736D697373696F93
:104530006E20436F6D706C6574650D00FEE70000C2
:1045400080B50748006880694005400F03D00448E3
:10455000FEF75AF980BD0248FEF797F980BDC046C4
:10456000C404002080B5806A816B002901D000223C
:104570008A6301464031C26B002A01D00023936355
:104580004A78602A07D120224A7000220A7002630A
:10459000FEF738F980BD00220A700263FEF77EF94B
:1045A00080BD0000F0B583B0064640367178282201
:1045B0000A400568282A21D1A969AC69AA68029233
:1045C000EB68FE22240CC903C90FC768022F1BD158
:1045D00001911946029BDF0967407C07A40F1FD099
:1045E0000B461340002232702A68B824A2432A6086
:1045F00001991A46FEF707F903B0F0BD00203070AC
:104600000820E86103B0F0BD002333702B68B826A2
:10461000B3432B6014402246FEF7F5F803B0F0BD1B
:10462000826C521C8264826C022AEBD1064C1A46C0
:1046300022400023836433700823EB610199FEF765
:10464000E2F803B0F0BDC046FF03000070B50446B9
:10465000054640356A780020A870D14BE36260853A
:10466000636C0B4363646978283A022A0AD82820CD
:104670000140282916D0F2216A780240282A16D152
:10468000042215E0697821680A68FE239A430A60CB
:104690008A69920714D48A69D20715D06A78602A89
:1046A00019D127E042216A780240282AE8D0B422B2
:1046B0000A4321680B6893430B606870384819E01F
:1046C00088628A69D207E9D18A69012313438B6121
:1046D0006A78602A0ED020226A708B699B0609D501
:1046E0008B69DB0605D51023CB61636C04261E4362
:1046F0006664CA616063A06B226B00281CD0212A0B
:1047000001D0112A18D10A68520404D5012292035B
:104710000B6893430B60FDF741FF01281FD0002079
:104720002870A06B1F498163FDF715FF002828D072
:10473000A06B816B884770BDE06B00280FD0222AE8
:1047400001D0122A0BD10A68120404D50122D20327
:104750000B6893430B60FDF721FF012812D16878A5
:10476000602808D12020687000202870206320462F
:10477000FEF748F870BD0020287020632046FEF741
:104780008DF870BD00202870E06B06498163FDF74D
:10479000E2FE0028F5D0E06B816B884770BDC04613
:1047A000A94B000865450008F0B583B002910446A6
:1047B0000268176806464036707820210191D16161
:1047C000F7210140FC20C543212904D0222908D12A
:1047D00022212B4600E0AB1C707810681840106056
:1047E000216300950123D903506808435060506845
:1047F000EC4D05405560906980070FD49069C00763
:10480000029D11D09B03780414D40F421BD0106872
:1048100088431060E76B002F12D114E000209062F3
:104820009069C007029DEDD19069184390619B0388
:104830007804EAD5106898431060A76B002F02D067
:1048400038684068608568070ED5606A526A0270F1
:10485000606A401C6062228D0025002A04D0501E30
:104860002085608D401E6085608D002803D0606CBF
:104870000422024362640027B7706763606C0028FB
:1048800031D0616C2046FFF7E1FE7078282849D1CD
:104890004348E0622763019870706763B7706807E8
:1048A00012D5606A2168496A0170606A401C6062C2
:1048B000208D002808D0618D491E6185401E20850D
:1048C000606C04210143616470787078206801682D
:1048D000FE229143016037701021C1612046FEF72E
:1048E00033F803B0F0BDE06A2D4A90420BD17078E6
:1048F0000199717037702763222810D12046FEF786
:1049000047FB03B0F0BD104622681568B7701D4222
:104910000AD10D42009B05460CD0424907E02046D3
:10492000FEF737FB03B0F0BD3D49009B054610681C
:1049300008401060707829280AD128207070212141
:10494000216337707178014028290FD00A330EE0B7
:1049500070782A2819D1282070702221216337709D
:1049600071780140282909D0083308E0BA3310686B
:10497000184010602046FEF70CFB06E0B8331068C4
:10498000184010602046FEF703FBE5620198707046
:10499000377027632046FDF7D7FF03B0F0BDC04650
:1049A0000000FFFFB0B501680C68024640320023EA
:1049B0009370650403D4240405D51A4C00E0184C08
:1049C0000D6825400D605478292C0CD12824547092
:1049D00021250563137053782340F422D243282BFA
:1049E00016D0921C15E054782A2C10D1282454702B
:1049F00022250563137053782340F422D243282BD9
:104A000000D1B0320B6813400B60FEF7C1FAB0BDA5
:104A1000B2320B6813400B60FEF7BBFAB0BDC04664
:104A2000FFBFFFFFFF7FFFFFF0B585B00E460446D6
:104A30004030049020688169C90606D400210F46E1
:104A400001258269D30545D448E01021C1618169FF
:104A5000890637D4711C32D015460120002E6CD146
:104A600086030390C7030297FDF784FE206842681F
:104A70000499897883693B4209D0324007D12029C3
:104A800005D0416831434160FDF774FE054620685A
:104A90008169890605D4FDF76DFE401B1A28F6D3FF
:104AA00076E081698906029FDED50BE0816989067F
:104AB00008D48169890605D48169890602D481698F
:104AC0008906F3D52021C1610127042101258269CE
:104AD000D30503D52B02C36129432F466B0256052C
:104AE00006D41A420AD1002F0BD1002005B0F0BD28
:104AF000AD02C561082529431A4202D0C3610222D2
:104B000011438269920701D5002282628269D2072D
:104B100003D182690123134383614268214B13400F
:104B20004360606C08436064202004994870002052
:104B300008708870012005B0F0BD810302910390D8
:104B4000C0030190019F02E081698906BAD4FDF794
:104B500011FE411B2068B142F6D942680499897858
:104B600083693B420BD0029B1A4008D1202906D012
:104B70004168029A11434160FDF7FCFD054620683B
:104B800081698906E0D4FDF7F5FD401B1A28F6D3AC
:104B9000206881692421039F01258269D30599D466
:104BA0009CE7C04600E800FEF0B583B01646044618
:104BB0004020205CE26A012802D1022003B0F0BD4F
:104BC0000D46204640300127029007700E40B00687
:104BD00009D52046294601943C461746FFF7E4FDD7
:104BE0003A462746019CF0061CD4700731D43007A2
:104BF00000D586E0B007029E00D4F0E0608D00286A
:104C000000D1C2E02068616A0A788262481C606252
:104C1000208D401E2085608D401E608500203070F4
:104C200003B0F0BD608D002836D020681021C1612E
:104C3000606C0421014361646B480242029E00D013
:104C4000CDE0616C2046FFF701FD0020307003B01D
:104C5000F0BD608D0028029E0CD0606A2168496A10
:104C60000170606A401C6062208D401E2085608D4E
:104C7000401E6085608D002800D0B0E05B48824215
:104C800000D1ACE0206802680021B17053045DD40B
:104C900012045FD5574A5AE0029E7078534928287B
:104CA00037D17806824234D1E1620020206320218E
:104CB00071706063B070690712D5616A2268526AC8
:104CC0000A70616A491C6162218D002908D0628DD9
:104CD000521E6285491E2185616C04220A4362646A
:104CE0007178717821680A68FE239A430A603070EF
:104CF0001020C8612046FDF727FE0020307003B069
:104D0000F0BD2046FFF74EFC029E0020307003B03D
:104D1000F0BD1546727820681023C361292A5ED140
:104D20008D425CD08169890701D50021816281694A
:104D3000C90702D181693943816102680021B170DC
:104D400053042CD412042ED52A4A29E0284A036899
:104D5000134003607278292A28D1282272702123F7
:104D60002363317073781340F421C943282B01D099
:104D7000891C00E0B23102680A4002602046FEF75A
:104D800008F90020307003B0F0BD1748024226D168
:104D90002046FFF707FE0020307003B0F0BD144A34
:104DA0000368134003607278292AD6D072782A2AC1
:104DB00015D1282272702223236331707378134037
:104DC000F421C943282B00D1B03102680A400260A7
:104DD0002046FEF7DDF80020307003B0F0BD002063
:104DE000307003B0F0BDC046FFFFFFFE0000FFFFC4
:104DF000FFBFFFFFFF7FFFFFF0B583B01C461546E6
:104E00000E460746036899693140891B4A424A4168
:104E10000020AA4234D1611C2BD0002C32D1044690
:104E2000FDF7A8FC386881693140891B4A424A4134
:104E3000AA4240D080693040801B41424141A94292
:104E4000EED0204603B0F0BD99693140891B4A423B
:104E50004A41AA4214D199693140891B4A424A41C8
:104E6000AA420DD199693140891B4A424A41AA425E
:104E700006D199693140891B4A424A41AA42E3D08E
:104E800003B0F0BD01900898029006E080693040C0
:104E9000801B41424141A9421AD1FDF76BFC0299A6
:104EA000411A3868A142F1D981693140891B4A42CF
:104EB0004A41AA42EAD138464030796C2022114357
:104EC00079644270002101708170012003B0F0BD4F
:104ED000019803B0F0BDF0B581B005460068806967
:104EE0000024800622D416460F46002903D129E06B
:104EF000806980061AD4284639463246FFF794FD69
:104F0000002827D1FDF736FC811B2868B942EFD96C
:104F100081698906ECD428464030696C202211430F
:104F2000696442700021017081700124204601B043
:104F3000F0BDFDF71FFC286881698906EBD5806903
:104F40008006F3D40024284621463246FFF76CFD44
:104F50000028EED00124204601B0F0BDF0B581B0AC
:104F60000546006880690024800716D416460F465F
:104F7000481C19D0002F26D100242846214632464D
:104F8000FFF752FD002838D1FDF7F4FB286881694E
:104F9000890728D580698007EED5204601B0F0BD8D
:104FA000286880698007F8D40024E1432846324607
:104FB000FFF73AFD0028F3D00124204601B0F0BDF0
:104FC00080698007E9D4284639463246FFF72CFD30
:104FD000002812D1FDF7CEFB811B2868B942EFD91A
:104FE00081698907ECD428464030696C202211433E
:104FF000696442700021017081700124204601B073
:10500000F0BDFEE77047704780B5FDF7C3FF80BD78
:105010007047000080B50248FEF719FF80BDC0460A
:10502000A0010020B0B5416ACA070CD18A0714D488
:105030004A071CD40A0724D4CA062CD48A0634D4BE
:105040004A063CD44CE00122520403685C68944355
:10505000826A22435A608A07EAD501221204036851
:105060005C689443C26A22435A604A07E2D501222F
:10507000920403685C689443026B22435A600A07F7
:10508000DAD50122D20303685C689443426B224361
:105090005A60CA06D2D50122120303689C68944361
:1050A000826B22439A608A06CAD5012252030368A2
:1050B0009C689443C26B22439A604A0610D5012231
:1050C0001305026854689C43056C2C4354609D4250
:1050D00006D103235B0554689C43436C2343536010
:1050E000090607D50121C904026853688B43806C07
:1050F00018435060B0BD0000F0B583B004460646CA
:1051000078360027F760FDF735FB03462068016815
:1051100009071FD528480090012002904105002270
:1051200020461D4600F0C8F9002811D0EFF310808A
:10513000029981F3108821680A6880239A430A60E3
:1051400080F310882020E0670320377003B0F0BDA3
:1051500020682B460068400725D517480090012598
:10516000A9050022204600F0A7F900281BD0EFF384
:10517000108085F3108809214901226813688B4348
:10518000136080F31088EFF3108085F31088216896
:105190008A68AA438A6080F310882020B0600320C8
:1051A000377003B0F0BD2020E067B0602766676607
:1051B0003846377003B0F0BDFFFFFF0180B5806A4D
:1051C0000146523100220A8152214252FEF7EAFE84
:1051D00080BD0000F0B581B0044601680868764AD9
:1051E0000240A06823690343606918431043E269E1
:1051F00010430860032630034B688343E06818437C
:105200004860A5696D4B994202D0206A284300E0AE
:1052100028460B252D028F68AF4307438F606848EF
:10522000814214DD0027674881421FD066488142D1
:105230001CD06648814243D16648C06C8007000F8D
:1052400066A52F580125E803994213D13DE0604837
:10525000814205D0994233D15E48C06C000A01E01A
:105260005C48C06C0C2505405B4847590125E803A4
:1052700099422AD0824212D1082F00D996E0C04626
:105280007F443F797F00BF44043C46914C9191910B
:105290007300FEF723F9002800D069E085E0082FAD
:1052A00000D983E07F443F797F00BF44042F3F7FD4
:1052B000457F7F7F7200FEF711F9002869D174E005
:1052C00010270125E8039942D4D1082F6ED8C04693
:1052D0007F443F797F00BF44046909690F696969A8
:1052E0003500FEF7FBF800282CD15EE03948006855
:1052F000C00626D53E4825E0FEF70AF9002821D150
:1053000053E0FEF7F5F8002832D14EE0FEF7F0F852
:1053100000283ED149E02F480068C00627D5344810
:1053200026E0FEF7F5F8002822D13EE02948006883
:10533000C0062DD52E482CE0FEF7EAF8002828D12B
:1053400033E02A4862685643B0422FD311038842A3
:105350002CD8010E56080002002380195941FAF793
:1053600043FF25494118254A91421CD31EE01F489E
:10537000400061684A08101801F037F80246103AF8
:105380001C498A4212D201400007400F08430AE03C
:10539000164861684A08101801F027F801461039CC
:1053A000144A914202D22168C86000250020A066FC
:1053B000E066284601B0F0BDF369FFEF0048004009
:1053C000FF4B0040004C00400050004000380140BE
:1053D0000044004000100240446E0008010000003C
:1053E0000400000002000000080000000024F40097
:1053F00000093D00F0FF000000FDFFFF00FD0F0071
:10540000B0B5C16F212910D15221415A00290DD0C8
:1054100001465231C26C1388104C1C4003689C62D8
:10542000921CC2640888401E0880B0BDEFF3108152
:10543000012282F3108803681C688025AC431C603D
:1054400081F31088EFF3108182F3108800680268FE
:1054500040231343036081F31088B0BDFF010000B7
:10546000B0B5C16F21290ED15221415A00290BD06C
:10547000014652310268C36C1C7894625A1CC264A3
:105480000888401E0880B0BDEFF31081012282F32E
:10549000108803681C688025AC431C6081F3108869
:1054A000EFF3108182F310880068026840231343F1
:1054B000036081F31088B0BDF0B587B015460F4684
:1054C0000668F1693940C91B4A424A410021AA4293
:1054D00025D106930C9C002C24D00B46611C26D1B0
:1054E000F1693940C91B4A424A41AA4214D1F169C3
:1054F0003940C91B4A424A41AA420DD1F16939409B
:10550000C91B4A424A41AA4206D1F1693940C91B26
:105510004A424A41AA42E3D0184607B0F0BD0846C5
:1055200007B0F0BDFDF726F9032007B0F0BD0293E8
:1055300001467831039101210191C902049105903E
:1055400006E0C9693940CA1B51425141A9424BD1B9
:10555000FDF710F90699411A0323A142DCD80598FA
:1055600001680A685207ECD5CA6912073FD4CA69B4
:105570002646049C22423446E3D01F460498086223
:10558000EFF31082012181F3108809235B01059854
:10559000046825689D43256082F31088EFF310822C
:1055A00081F31088059803689C688C439C6005987B
:1055B00082F31088026E012A0BD1EFF3108281F37F
:1055C000108801680B681024A3430B60059882F3D0
:1055D00010882021039B99600022026682661A705F
:1055E000D960384607B0F0BD029807B0F0BD082575
:1055F0000D62EFF31081019880F3108809225201A7
:10560000059B1B681C6894431C6081F31088EFF3B2
:10561000108180F31088059A126893688343936021
:10562000059B81F31088196E01290CD1EFF31081CD
:10563000012282F310881A6813681024A3431360B0
:10564000059B81F310882021039A9160002119663F
:1056500099661170D56007B0F0BD000080B588482C
:10566000FEF7BEFC80BDC046F0B581B00024594DA8
:105670002746281900902859FBF76CFB02460B4679
:10568000FBF744FA05460E463846FBF763FB024635
:105690000B4628463146FBF7DDF9FBF721F80746B4
:1056A0000098C068FBF756FB02460B46FBF72EFA44
:1056B00005460E463846FBF74DFB02460B4628468C
:1056C000444D3146FBF7C6F9FBF70AF80746183494
:1056D000782CCED14049384600F0F4FF00F0C5FFE9
:1056E0009249086200273C46E81900904068FBF7A1
:1056F00031FB02460B46FBF709FA05460E462046EB
:10570000FBF728FB02460B4628463146FBF7A2F979
:10571000FAF7E6FF044600980069FBF71BFB024618
:105720000B46FBF7F3F905460E462046FBF712FB46
:1057300002460B462846274D3146FBF78BF9FAF710
:10574000CFFF04461837782FCED12349204600F0EA
:10575000B9FF00F08AFF7549486200273C46E81906
:1057600000908068FBF7F6FA02460B46FBF7CEF98D
:1057700005460E462046FBF7EDFA02460B46284644
:105780003146FBF767F9FAF7ABFF0446009840692A
:10579000FBF7E0FA02460B46FBF7B8F905460E4662
:1057A0002046FBF7D7FA02460B462846094D3146FC
:1057B000FBF750F9FAF794FF04461837782FCED14B
:1057C0000549204600F07EFF00F04FFFF649886251
:1057D00001B0F0BDE8030020CDCCCC3DF0B585B0E4
:1057E0001C4CE068FBF7B6FA04900D462069FBF705
:1057F000B1FA06460F46A068FBF7ACFA02460B4624
:10580000049800A9E1C1144C14A12046FAF774FDD4
:105810002046FAF723FE82B2E54D28462146FEF7E0
:1058200039FE2046FAF71AFE82B228462146FEF7D4
:1058300031FE014605200007002905D02021012264
:10584000FCF790FF05B0F0BD2021FCF783FF05B009
:10585000F0BDC0467401002060040020585F673A24
:1058600020252E34662C20595F673A20252E346679
:105870002C205A5F673A20252E3466200D0A00003E
:1058800018050020F0B589B01027012138460C46D4
:10589000039100F039FB2548006AFBF75BFA0246EA
:1058A0000B4604AD22A12846FAF726FD00942348B2
:1058B000016802914668846828463246234600F013
:1058C00073FD0921384600F01FFB1848406AFBF7BA
:1058D00041FA02460B461AA12846FAF70DFD039835
:1058E0000090284602993246234600F05DFD1121C2
:1058F000384600F009FB0D48806AFBF72BFA024698
:105900000B4612A12846FAF7F7FC039800902846A8
:1059100002993246234600F047FD0520000720216A
:10592000FCF718FF00F0F6FA09B0F0BD7401002092
:10593000585F726D733A20252E3566002C6E000874
:10594000595F726D733A20252E3566005A5F726D6D
:10595000733A20252E356600A4B0FDF725FB16AC62
:10596000201D24252946FAF7B9FD06A8001D294661
:10597000FAF7B4FD0326F00287490A688243012042
:105980001990C302D2180A6000252195022720979A
:1059900010211A91169781052391800422902046A8
:1059A000FDF7F0FD002803D0EFF3108072B6FEE79C
:1059B00015951495139512960F20119011A8012496
:1059C0002146FDF777FC002803D0EFF3108072B674
:1059D000FEE70C9508200490069006A8FDF74EFB04
:1059E000002803D0EFF3108072B6FEE71A956B48DB
:1059F00001688022114301600168114006910699F7
:105A000001682143016001682140069106990168FF
:105A100039430160006838400690069805200594D7
:105A200004072027204639462A46FCF79BFE199694
:105A3000189505981790169716A92046059CFCF70F
:105A4000C3FD86485649574A026041608560C4607C
:105A5000056145618561C5610562FCF721FF00288C
:105A600003D0EFF3108072B6FEE77C480021FCF70C
:105A700087FE002803D0EFF3108072B6FEE7774868
:105A800000252946FCF79DFE002803D0EFF3108087
:105A900072B6FEE72746704CA0204449BA07E2627E
:105AA00021636563A063E5632564199518951795CF
:105AB0000795069526462C363046FEF775F80028E1
:105AC00003D0EFF3108072B6FEE73803169016A9E4
:105AD0003046FEF70DF9002803D0EFF3108072B6C0
